{
  "contractName": "fourPartyModel",
  "abi": [
    {
      "inputs": [],
      "stateMutability": "nonpayable",
      "type": "constructor"
    },
    {
      "anonymous": false,
      "inputs": [
        {
          "indexed": true,
          "internalType": "address",
          "name": "from",
          "type": "address"
        },
        {
          "indexed": true,
          "internalType": "address",
          "name": "to",
          "type": "address"
        },
        {
          "indexed": false,
          "internalType": "uint256",
          "name": "amount",
          "type": "uint256"
        }
      ],
      "name": "NewExecutedTransfer",
      "type": "event"
    },
    {
      "anonymous": false,
      "inputs": [
        {
          "indexed": true,
          "internalType": "address",
          "name": "merchantCode",
          "type": "address"
        }
      ],
      "name": "NewMerchantCode",
      "type": "event"
    },
    {
      "anonymous": false,
      "inputs": [
        {
          "indexed": true,
          "internalType": "address",
          "name": "to",
          "type": "address"
        },
        {
          "indexed": false,
          "internalType": "uint256",
          "name": "amount",
          "type": "uint256"
        }
      ],
      "name": "NewMint",
      "type": "event"
    },
    {
      "anonymous": false,
      "inputs": [
        {
          "indexed": true,
          "internalType": "address",
          "name": "to",
          "type": "address"
        },
        {
          "indexed": false,
          "internalType": "uint256",
          "name": "amount",
          "type": "uint256"
        }
      ],
      "name": "Newburn",
      "type": "event"
    },
    {
      "inputs": [
        {
          "internalType": "address",
          "name": "",
          "type": "address"
        },
        {
          "internalType": "uint256",
          "name": "",
          "type": "uint256"
        }
      ],
      "name": "transfers",
      "outputs": [
        {
          "internalType": "address",
          "name": "to",
          "type": "address"
        },
        {
          "internalType": "uint256",
          "name": "amount",
          "type": "uint256"
        },
        {
          "internalType": "bool",
          "name": "executed",
          "type": "bool"
        },
        {
          "internalType": "address",
          "name": "ownerAddress",
          "type": "address"
        },
        {
          "internalType": "uint256",
          "name": "requiredConfirmations",
          "type": "uint256"
        },
        {
          "internalType": "uint256",
          "name": "totalConfirmations",
          "type": "uint256"
        },
        {
          "internalType": "bool",
          "name": "isConfirmByIssuer",
          "type": "bool"
        },
        {
          "internalType": "bool",
          "name": "isConfirmByBrand",
          "type": "bool"
        }
      ],
      "stateMutability": "view",
      "type": "function",
      "constant": true
    },
    {
      "inputs": [],
      "name": "name",
      "outputs": [
        {
          "internalType": "string",
          "name": "",
          "type": "string"
        }
      ],
      "stateMutability": "view",
      "type": "function",
      "constant": true
    },
    {
      "inputs": [],
      "name": "symbol",
      "outputs": [
        {
          "internalType": "string",
          "name": "",
          "type": "string"
        }
      ],
      "stateMutability": "view",
      "type": "function",
      "constant": true
    },
    {
      "inputs": [],
      "name": "totalSupply",
      "outputs": [
        {
          "internalType": "uint256",
          "name": "",
          "type": "uint256"
        }
      ],
      "stateMutability": "view",
      "type": "function",
      "constant": true
    },
    {
      "inputs": [],
      "name": "ownerCheck",
      "outputs": [
        {
          "internalType": "bool",
          "name": "",
          "type": "bool"
        }
      ],
      "stateMutability": "view",
      "type": "function",
      "constant": true
    },
    {
      "inputs": [],
      "name": "ownerAddress",
      "outputs": [
        {
          "internalType": "address",
          "name": "",
          "type": "address"
        }
      ],
      "stateMutability": "view",
      "type": "function",
      "constant": true
    },
    {
      "inputs": [
        {
          "internalType": "address",
          "name": "account",
          "type": "address"
        },
        {
          "internalType": "uint256",
          "name": "role",
          "type": "uint256"
        }
      ],
      "name": "setModifierUser",
      "outputs": [],
      "stateMutability": "nonpayable",
      "type": "function"
    },
    {
      "inputs": [
        {
          "internalType": "address",
          "name": "account",
          "type": "address"
        }
      ],
      "name": "setModifierMerchant",
      "outputs": [],
      "stateMutability": "nonpayable",
      "type": "function"
    },
    {
      "inputs": [
        {
          "internalType": "address",
          "name": "account",
          "type": "address"
        },
        {
          "internalType": "uint256",
          "name": "amount",
          "type": "uint256"
        }
      ],
      "name": "mint",
      "outputs": [],
      "stateMutability": "nonpayable",
      "type": "function"
    },
    {
      "inputs": [
        {
          "internalType": "address",
          "name": "account",
          "type": "address"
        },
        {
          "internalType": "uint256",
          "name": "amount",
          "type": "uint256"
        }
      ],
      "name": "burn",
      "outputs": [],
      "stateMutability": "nonpayable",
      "type": "function"
    },
    {
      "inputs": [
        {
          "internalType": "address",
          "name": "account",
          "type": "address"
        }
      ],
      "name": "balanceOf",
      "outputs": [
        {
          "internalType": "uint256",
          "name": "",
          "type": "uint256"
        }
      ],
      "stateMutability": "view",
      "type": "function",
      "constant": true
    },
    {
      "inputs": [
        {
          "internalType": "address",
          "name": "_to",
          "type": "address"
        },
        {
          "internalType": "uint256",
          "name": "_amount",
          "type": "uint256"
        }
      ],
      "name": "submitTransfer",
      "outputs": [],
      "stateMutability": "nonpayable",
      "type": "function"
    },
    {
      "inputs": [],
      "name": "checkBrand",
      "outputs": [
        {
          "internalType": "bool",
          "name": "",
          "type": "bool"
        }
      ],
      "stateMutability": "view",
      "type": "function",
      "constant": true
    },
    {
      "inputs": [],
      "name": "checkIssuer",
      "outputs": [
        {
          "internalType": "bool",
          "name": "",
          "type": "bool"
        }
      ],
      "stateMutability": "view",
      "type": "function",
      "constant": true
    },
    {
      "inputs": [],
      "name": "checkAcquire",
      "outputs": [
        {
          "internalType": "bool",
          "name": "",
          "type": "bool"
        }
      ],
      "stateMutability": "view",
      "type": "function",
      "constant": true
    },
    {
      "inputs": [],
      "name": "checkMerchant",
      "outputs": [
        {
          "internalType": "bool",
          "name": "",
          "type": "bool"
        }
      ],
      "stateMutability": "view",
      "type": "function",
      "constant": true
    },
    {
      "inputs": [
        {
          "internalType": "address",
          "name": "_userAddress",
          "type": "address"
        },
        {
          "internalType": "uint256",
          "name": "_transferIndex",
          "type": "uint256"
        }
      ],
      "name": "confirmTransfer",
      "outputs": [],
      "stateMutability": "nonpayable",
      "type": "function"
    },
    {
      "inputs": [
        {
          "internalType": "address",
          "name": "_acquireAddress",
          "type": "address"
        },
        {
          "internalType": "address",
          "name": "_merchantAddress",
          "type": "address"
        }
      ],
      "name": "makeMerchantCode",
      "outputs": [],
      "stateMutability": "nonpayable",
      "type": "function"
    },
    {
      "inputs": [
        {
          "internalType": "address",
          "name": "merchantCode",
          "type": "address"
        }
      ],
      "name": "showMerchantAddress",
      "outputs": [
        {
          "internalType": "address",
          "name": "",
          "type": "address"
        }
      ],
      "stateMutability": "view",
      "type": "function",
      "constant": true
    },
    {
      "inputs": [
        {
          "internalType": "address",
          "name": "merchantAddress",
          "type": "address"
        }
      ],
      "name": "showMerchantCode",
      "outputs": [
        {
          "internalType": "address",
          "name": "",
          "type": "address"
        }
      ],
      "stateMutability": "view",
      "type": "function",
      "constant": true
    }
  ],
  "bytecode": "0x60806040526040518060400160405280600a81526020017f4b494e444149204a504e00000000000000000000000000000000000000000000815250600690816200004a919062000349565b506040518060400160405280600581526020017f4b444a504e0000000000000000000000000000000000000000000000000000008152506007908162000091919062000349565b503480156200009e575f80fd5b503360085f6101000a81548173ffffffffffffffffffffffffffffffffffffffff021916908373ffffffffffffffffffffffffffffffffffffffff1602179055506200042d565b5f81519050919050565b7f4e487b71000000000000000000000000000000000000000000000000000000005f52604160045260245ffd5b7f4e487b71000000000000000000000000000000000000000000000000000000005f52602260045260245ffd5b5f60028204905060018216806200016157607f821691505b6020821081036200017757620001766200011c565b5b50919050565b5f819050815f5260205f209050919050565b5f6020601f8301049050919050565b5f82821b905092915050565b5f60088302620001db7fffffffffffffffffffffffffffffffffffffffffffffffffffffffffffffffff826200019e565b620001e786836200019e565b95508019841693508086168417925050509392505050565b5f819050919050565b5f819050919050565b5f620002316200022b6200022584620001ff565b62000208565b620001ff565b9050919050565b5f819050919050565b6200024c8362000211565b620002646200025b8262000238565b848454620001aa565b825550505050565b5f90565b6200027a6200026c565b6200028781848462000241565b505050565b5b81811015620002ae57620002a25f8262000270565b6001810190506200028d565b5050565b601f821115620002fd57620002c7816200017d565b620002d2846200018f565b81016020851015620002e2578190505b620002fa620002f1856200018f565b8301826200028c565b50505b505050565b5f82821c905092915050565b5f6200031f5f198460080262000302565b1980831691505092915050565b5f6200033983836200030e565b9150826002028217905092915050565b6200035482620000e5565b67ffffffffffffffff81111562000370576200036f620000ef565b5b6200037c825462000149565b62000389828285620002b2565b5f60209050601f831160018114620003bf575f8415620003aa578287015190505b620003b685826200032c565b86555062000425565b601f198416620003cf866200017d565b5f5b82811015620003f857848901518255600182019150602085019450602081019050620003d1565b8683101562000418578489015162000414601f8916826200030e565b8355505b6001600288020188555050505b505050505050565b612c5e806200043b5f395ff3fe608060405234801561000f575f80fd5b506004361061012a575f3560e01c806357b1dbe3116100ab5780639dc29fac1161006f5780639dc29fac14610337578063a6613c4614610353578063aeadbd1914610371578063d28125c01461038f578063e06753a5146103ab5761012a565b806357b1dbe31461027657806370a08231146102ad578063725039ff146102dd5780638f84aa09146102fb57806395d89b41146103195761012a565b806321e38e81116100f257806321e38e81146101c0578063250e3a92146101de57806325eb5f06146101fa57806340c10f191461022a578063559960da146102465761012a565b806306fdde031461012e57806317e9491a1461014c57806318160ddd1461016a5780631c987d57146101885780631d5e0bad146101a4575b5f80fd5b6101366103c7565b604051610143919061228d565b60405180910390f35b61015461045c565b60405161016191906122c7565b60405180910390f35b6101726104ac565b60405161017f91906122f8565b60405180910390f35b6101a2600480360381019061019d9190612399565b6104b5565b005b6101be60048036038101906101b99190612399565b61076a565b005b6101c86109fb565b6040516101d591906122c7565b60405180910390f35b6101f860048036038101906101f39190612399565b610a51565b005b610214600480360381019061020f91906123d7565b6110c9565b6040516102219190612411565b60405180910390f35b610244600480360381019061023f9190612399565b6111f8565b005b610260600480360381019061025b91906123d7565b611359565b60405161026d9190612411565b60405180910390f35b610290600480360381019061028b9190612399565b611488565b6040516102a498979695949392919061242a565b60405180910390f35b6102c760048036038101906102c291906123d7565b61154a565b6040516102d491906122f8565b60405180910390f35b6102e561158f565b6040516102f291906122c7565b60405180910390f35b6103036115df565b6040516103109190612411565b60405180910390f35b610321611607565b60405161032e919061228d565b60405180910390f35b610351600480360381019061034c9190612399565b61169c565b005b61035b611847565b60405161036891906122c7565b60405180910390f35b610379611897565b60405161038691906122c7565b60405180910390f35b6103a960048036038101906103a491906124a6565b6118e7565b005b6103c560048036038101906103c091906123d7565b611af2565b005b60605f600680546103d790612511565b80601f016020809104026020016040519081016040528092919081815260200182805461040390612511565b801561044e5780601f106104255761010080835404028352916020019161044e565b820191905f5260205f20905b81548152906001019060200180831161043157829003601f168201915b505050505090508091505090565b5f60045f3373ffffffffffffffffffffffffffffffffffffffff1673ffffffffffffffffffffffffffffffffffffffff1681526020019081526020015f205f9054906101000a900460ff16905090565b5f600554905090565b806104bf3361154a565b116104ff576040517f08c379a00000000000000000000000000000000000000000000000000000000081526004016104f69061258b565b60405180910390fd5b60045f8373ffffffffffffffffffffffffffffffffffffffff1673ffffffffffffffffffffffffffffffffffffffff1681526020019081526020015f205f9054906101000a900460ff16610588576040517f08c379a000000000000000000000000000000000000000000000000000000000815260040161057f90612619565b60405180910390fd5b5f6040518061010001604052808473ffffffffffffffffffffffffffffffffffffffff1681526020018381526020015f151581526020013373ffffffffffffffffffffffffffffffffffffffff168152602001600181526020015f81526020015f151581526020015f1515815250905060095f3373ffffffffffffffffffffffffffffffffffffffff1673ffffffffffffffffffffffffffffffffffffffff1681526020019081526020015f2081908060018154018082558091505060019003905f5260205f2090600602015f909190919091505f820151815f015f6101000a81548173ffffffffffffffffffffffffffffffffffffffff021916908373ffffffffffffffffffffffffffffffffffffffff160217905550602082015181600101556040820151816002015f6101000a81548160ff02191690831515021790555060608201518160020160016101000a81548173ffffffffffffffffffffffffffffffffffffffff021916908373ffffffffffffffffffffffffffffffffffffffff1602179055506080820151816003015560a0820151816004015560c0820151816005015f6101000a81548160ff02191690831515021790555060e08201518160050160016101000a81548160ff0219169083151502179055505050505050565b60085f9054906101000a900473ffffffffffffffffffffffffffffffffffffffff1673ffffffffffffffffffffffffffffffffffffffff163373ffffffffffffffffffffffffffffffffffffffff16146107f9576040517f08c379a00000000000000000000000000000000000000000000000000000000081526004016107f090612681565b60405180910390fd5b5f81036108a35760015f8373ffffffffffffffffffffffffffffffffffffffff1673ffffffffffffffffffffffffffffffffffffffff1681526020019081526020015f205f9054906101000a900460ff161560015f8473ffffffffffffffffffffffffffffffffffffffff1673ffffffffffffffffffffffffffffffffffffffff1681526020019081526020015f205f6101000a81548160ff0219169083151502179055506109f7565b6001810361094e5760025f8373ffffffffffffffffffffffffffffffffffffffff1673ffffffffffffffffffffffffffffffffffffffff1681526020019081526020015f205f9054906101000a900460ff161560025f8473ffffffffffffffffffffffffffffffffffffffff1673ffffffffffffffffffffffffffffffffffffffff1681526020019081526020015f205f6101000a81548160ff0219169083151502179055506109f6565b600281036109f55760035f8373ffffffffffffffffffffffffffffffffffffffff1673ffffffffffffffffffffffffffffffffffffffff1681526020019081526020015f205f9054906101000a900460ff161560035f8473ffffffffffffffffffffffffffffffffffffffff1673ffffffffffffffffffffffffffffffffffffffff1681526020019081526020015f205f6101000a81548160ff0219169083151502179055505b5b5b5050565b5f60085f9054906101000a900473ffffffffffffffffffffffffffffffffffffffff1673ffffffffffffffffffffffffffffffffffffffff163373ffffffffffffffffffffffffffffffffffffffff1614905090565b60015f3373ffffffffffffffffffffffffffffffffffffffff1673ffffffffffffffffffffffffffffffffffffffff1681526020019081526020015f205f9054906101000a900460ff1680610aec575060035f3373ffffffffffffffffffffffffffffffffffffffff1673ffffffffffffffffffffffffffffffffffffffff1681526020019081526020015f205f9054906101000a900460ff165b610b2b576040517f08c379a0000000000000000000000000000000000000000000000000000000008152600401610b22906126e9565b60405180910390fd5b60095f8373ffffffffffffffffffffffffffffffffffffffff1673ffffffffffffffffffffffffffffffffffffffff1681526020019081526020015f20805490508110610bad576040517f08c379a0000000000000000000000000000000000000000000000000000000008152600401610ba490612777565b60405180910390fd5b5f60015f3373ffffffffffffffffffffffffffffffffffffffff1673ffffffffffffffffffffffffffffffffffffffff1681526020019081526020015f205f9054906101000a900460ff1690505f60035f3373ffffffffffffffffffffffffffffffffffffffff1673ffffffffffffffffffffffffffffffffffffffff1681526020019081526020015f205f9054906101000a900460ff1690508115610de25760095f8573ffffffffffffffffffffffffffffffffffffffff1673ffffffffffffffffffffffffffffffffffffffff1681526020019081526020015f208381548110610c9c57610c9b612795565b5b905f5260205f2090600602016005015f9054906101000a900460ff1615610cf8576040517f08c379a0000000000000000000000000000000000000000000000000000000008152600401610cef90612832565b60405180910390fd5b600160095f8673ffffffffffffffffffffffffffffffffffffffff1673ffffffffffffffffffffffffffffffffffffffff1681526020019081526020015f208481548110610d4957610d48612795565b5b905f5260205f2090600602016005015f6101000a81548160ff02191690831515021790555060095f8573ffffffffffffffffffffffffffffffffffffffff1673ffffffffffffffffffffffffffffffffffffffff1681526020019081526020015f208381548110610dbd57610dbc612795565b5b905f5260205f2090600602016004015f815480929190610ddc9061287d565b91905055505b8015610f7f5760095f8573ffffffffffffffffffffffffffffffffffffffff1673ffffffffffffffffffffffffffffffffffffffff1681526020019081526020015f208381548110610e3757610e36612795565b5b905f5260205f20906006020160050160019054906101000a900460ff1615610e94576040517f08c379a0000000000000000000000000000000000000000000000000000000008152600401610e8b90612832565b60405180910390fd5b600160095f8673ffffffffffffffffffffffffffffffffffffffff1673ffffffffffffffffffffffffffffffffffffffff1681526020019081526020015f208481548110610ee557610ee4612795565b5b905f5260205f20906006020160050160016101000a81548160ff02191690831515021790555060095f8573ffffffffffffffffffffffffffffffffffffffff1673ffffffffffffffffffffffffffffffffffffffff1681526020019081526020015f208381548110610f5a57610f59612795565b5b905f5260205f2090600602016004015f815480929190610f799061287d565b91905055505b60095f8573ffffffffffffffffffffffffffffffffffffffff1673ffffffffffffffffffffffffffffffffffffffff1681526020019081526020015f208381548110610fce57610fcd612795565b5b905f5260205f2090600602016003015460095f8673ffffffffffffffffffffffffffffffffffffffff1673ffffffffffffffffffffffffffffffffffffffff1681526020019081526020015f20848154811061102d5761102c612795565b5b905f5260205f20906006020160040154106110c357600160095f8673ffffffffffffffffffffffffffffffffffffffff1673ffffffffffffffffffffffffffffffffffffffff1681526020019081526020015f20848154811061109357611092612795565b5b905f5260205f2090600602016002015f6101000a81548160ff0219169083151502179055506110c28484611be5565b5b50505050565b5f8073ffffffffffffffffffffffffffffffffffffffff16600b5f8473ffffffffffffffffffffffffffffffffffffffff1673ffffffffffffffffffffffffffffffffffffffff1681526020019081526020015f205f9054906101000a900473ffffffffffffffffffffffffffffffffffffffff1673ffffffffffffffffffffffffffffffffffffffff1603611194576040517f08c379a000000000000000000000000000000000000000000000000000000000815260040161118b9061290e565b60405180910390fd5b600b5f8373ffffffffffffffffffffffffffffffffffffffff1673ffffffffffffffffffffffffffffffffffffffff1681526020019081526020015f205f9054906101000a900473ffffffffffffffffffffffffffffffffffffffff169050919050565b60015f3373ffffffffffffffffffffffffffffffffffffffff1673ffffffffffffffffffffffffffffffffffffffff1681526020019081526020015f205f9054906101000a900460ff1680611293575060035f3373ffffffffffffffffffffffffffffffffffffffff1673ffffffffffffffffffffffffffffffffffffffff1681526020019081526020015f205f9054906101000a900460ff165b6112d2576040517f08c379a00000000000000000000000000000000000000000000000000000000081526004016112c9906126e9565b60405180910390fd5b6112ef82826112e08561154a565b6112ea919061292c565b612135565b8060055f828254611300919061292c565b925050819055508173ffffffffffffffffffffffffffffffffffffffff167f52277f0b4a9b555c5aa96900a13546f972bda413737ec164aac947c87eec60248260405161134d91906122f8565b60405180910390a25050565b5f8073ffffffffffffffffffffffffffffffffffffffff16600a5f8473ffffffffffffffffffffffffffffffffffffffff1673ffffffffffffffffffffffffffffffffffffffff1681526020019081526020015f205f9054906101000a900473ffffffffffffffffffffffffffffffffffffffff1673ffffffffffffffffffffffffffffffffffffffff1603611424576040517f08c379a000000000000000000000000000000000000000000000000000000000815260040161141b9061290e565b60405180910390fd5b600a5f8373ffffffffffffffffffffffffffffffffffffffff1673ffffffffffffffffffffffffffffffffffffffff1681526020019081526020015f205f9054906101000a900473ffffffffffffffffffffffffffffffffffffffff169050919050565b6009602052815f5260405f2081815481106114a1575f80fd5b905f5260205f2090600602015f9150915050805f015f9054906101000a900473ffffffffffffffffffffffffffffffffffffffff1690806001015490806002015f9054906101000a900460ff16908060020160019054906101000a900473ffffffffffffffffffffffffffffffffffffffff1690806003015490806004015490806005015f9054906101000a900460ff16908060050160019054906101000a900460ff16905088565b5f805f8373ffffffffffffffffffffffffffffffffffffffff1673ffffffffffffffffffffffffffffffffffffffff1681526020019081526020015f20549050919050565b5f60015f3373ffffffffffffffffffffffffffffffffffffffff1673ffffffffffffffffffffffffffffffffffffffff1681526020019081526020015f205f9054906101000a900460ff16905090565b5f60085f9054906101000a900473ffffffffffffffffffffffffffffffffffffffff16905090565b60605f6007805461161790612511565b80601f016020809104026020016040519081016040528092919081815260200182805461164390612511565b801561168e5780601f106116655761010080835404028352916020019161168e565b820191905f5260205f20905b81548152906001019060200180831161167157829003601f168201915b505050505090508091505090565b60015f3373ffffffffffffffffffffffffffffffffffffffff1673ffffffffffffffffffffffffffffffffffffffff1681526020019081526020015f205f9054906101000a900460ff1680611737575060035f3373ffffffffffffffffffffffffffffffffffffffff1673ffffffffffffffffffffffffffffffffffffffff1681526020019081526020015f205f9054906101000a900460ff165b611776576040517f08c379a000000000000000000000000000000000000000000000000000000000815260040161176d906126e9565b60405180910390fd5b806117808361154a565b116117c0576040517f08c379a00000000000000000000000000000000000000000000000000000000081526004016117b7906129f5565b60405180910390fd5b6117dd82826117ce8561154a565b6117d89190612a13565b612135565b8060055f8282546117ee9190612a13565b925050819055508173ffffffffffffffffffffffffffffffffffffffff167fbaa05e9944b2fc09f14164d302b9620caeee7277f44cf7df5b518d4ce32517048260405161183b91906122f8565b60405180910390a25050565b5f60025f3373ffffffffffffffffffffffffffffffffffffffff1673ffffffffffffffffffffffffffffffffffffffff1681526020019081526020015f205f9054906101000a900460ff16905090565b5f60035f3373ffffffffffffffffffffffffffffffffffffffff1673ffffffffffffffffffffffffffffffffffffffff1681526020019081526020015f205f9054906101000a900460ff16905090565b60025f3373ffffffffffffffffffffffffffffffffffffffff1673ffffffffffffffffffffffffffffffffffffffff1681526020019081526020015f205f9054906101000a900460ff16611939575f80fd5b5f8160405160200161194b9190612a8b565b60405160208183030381529060405290505f8360405160200161196e9190612a8b565b60405160208183030381529060405290505f8282604051602001611993929190612ae9565b60405160208183030381529060405290505f81805190602001205f1c905084600a5f8373ffffffffffffffffffffffffffffffffffffffff1673ffffffffffffffffffffffffffffffffffffffff1681526020019081526020015f205f6101000a81548173ffffffffffffffffffffffffffffffffffffffff021916908373ffffffffffffffffffffffffffffffffffffffff16021790555080600b5f8773ffffffffffffffffffffffffffffffffffffffff1673ffffffffffffffffffffffffffffffffffffffff1681526020019081526020015f205f6101000a81548173ffffffffffffffffffffffffffffffffffffffff021916908373ffffffffffffffffffffffffffffffffffffffff1602179055508073ffffffffffffffffffffffffffffffffffffffff167f5d5980a0fb4b7e37193fed5f3a5c54ef1fede3059a10486c5ba51bd63215b6fa60405160405180910390a2505050505050565b60025f3373ffffffffffffffffffffffffffffffffffffffff1673ffffffffffffffffffffffffffffffffffffffff1681526020019081526020015f205f9054906101000a900460ff16611b44575f80fd5b60045f8273ffffffffffffffffffffffffffffffffffffffff1673ffffffffffffffffffffffffffffffffffffffff1681526020019081526020015f205f9054906101000a900460ff161560045f8373ffffffffffffffffffffffffffffffffffffffff1673ffffffffffffffffffffffffffffffffffffffff1681526020019081526020015f205f6101000a81548160ff02191690831515021790555050565b60095f8373ffffffffffffffffffffffffffffffffffffffff1673ffffffffffffffffffffffffffffffffffffffff1681526020019081526020015f20805490508110611c67576040517f08c379a0000000000000000000000000000000000000000000000000000000008152600401611c5e90612777565b60405180910390fd5b6001151560095f8473ffffffffffffffffffffffffffffffffffffffff1673ffffffffffffffffffffffffffffffffffffffff1681526020019081526020015f208281548110611cba57611cb9612795565b5b905f5260205f2090600602016002015f9054906101000a900460ff16151514611d18576040517f08c379a0000000000000000000000000000000000000000000000000000000008152600401611d0f90612ba2565b60405180910390fd5b611e7b60095f8473ffffffffffffffffffffffffffffffffffffffff1673ffffffffffffffffffffffffffffffffffffffff1681526020019081526020015f208281548110611d6a57611d69612795565b5b905f5260205f20906006020160020160019054906101000a900473ffffffffffffffffffffffffffffffffffffffff1660095f8573ffffffffffffffffffffffffffffffffffffffff1673ffffffffffffffffffffffffffffffffffffffff1681526020019081526020015f208381548110611de957611de8612795565b5b905f5260205f2090600602015f015f9054906101000a900473ffffffffffffffffffffffffffffffffffffffff1660095f8673ffffffffffffffffffffffffffffffffffffffff1673ffffffffffffffffffffffffffffffffffffffff1681526020019081526020015f208481548110611e6657611e65612795565b5b905f5260205f2090600602016001015461217a565b60095f8373ffffffffffffffffffffffffffffffffffffffff1673ffffffffffffffffffffffffffffffffffffffff1681526020019081526020015f208181548110611eca57611ec9612795565b5b905f5260205f2090600602015f015f9054906101000a900473ffffffffffffffffffffffffffffffffffffffff1673ffffffffffffffffffffffffffffffffffffffff1660095f8473ffffffffffffffffffffffffffffffffffffffff1673ffffffffffffffffffffffffffffffffffffffff1681526020019081526020015f208281548110611f5d57611f5c612795565b5b905f5260205f20906006020160020160019054906101000a900473ffffffffffffffffffffffffffffffffffffffff1673ffffffffffffffffffffffffffffffffffffffff167f6c9a31cbdcf01aac6933aee0a2e218496cb3d2356c7ba0693d0efc0461f9aa5360095f8673ffffffffffffffffffffffffffffffffffffffff1673ffffffffffffffffffffffffffffffffffffffff1681526020019081526020015f20848154811061201357612012612795565b5b905f5260205f2090600602016001015460405161203091906122f8565b60405180910390a360095f8373ffffffffffffffffffffffffffffffffffffffff1673ffffffffffffffffffffffffffffffffffffffff1681526020019081526020015f20818154811061208757612086612795565b5b905f5260205f2090600602015f8082015f6101000a81549073ffffffffffffffffffffffffffffffffffffffff0219169055600182015f9055600282015f6101000a81549060ff02191690556002820160016101000a81549073ffffffffffffffffffffffffffffffffffffffff0219169055600382015f9055600482015f9055600582015f6101000a81549060ff02191690556005820160016101000a81549060ff021916905550505050565b805f808473ffffffffffffffffffffffffffffffffffffffff1673ffffffffffffffffffffffffffffffffffffffff1681526020019081526020015f20819055505050565b806121848461154a565b116121c4576040517f08c379a00000000000000000000000000000000000000000000000000000000081526004016121bb90612c0a565b60405180910390fd5b6121e183826121d28661154a565b6121dc9190612a13565b612135565b6121fe82826121ef8561154a565b6121f9919061292c565b612135565b505050565b5f81519050919050565b5f82825260208201905092915050565b5f5b8381101561223a57808201518184015260208101905061221f565b5f8484015250505050565b5f601f19601f8301169050919050565b5f61225f82612203565b612269818561220d565b935061227981856020860161221d565b61228281612245565b840191505092915050565b5f6020820190508181035f8301526122a58184612255565b905092915050565b5f8115159050919050565b6122c1816122ad565b82525050565b5f6020820190506122da5f8301846122b8565b92915050565b5f819050919050565b6122f2816122e0565b82525050565b5f60208201905061230b5f8301846122e9565b92915050565b5f80fd5b5f73ffffffffffffffffffffffffffffffffffffffff82169050919050565b5f61233e82612315565b9050919050565b61234e81612334565b8114612358575f80fd5b50565b5f8135905061236981612345565b92915050565b612378816122e0565b8114612382575f80fd5b50565b5f813590506123938161236f565b92915050565b5f80604083850312156123af576123ae612311565b5b5f6123bc8582860161235b565b92505060206123cd85828601612385565b9150509250929050565b5f602082840312156123ec576123eb612311565b5b5f6123f98482850161235b565b91505092915050565b61240b81612334565b82525050565b5f6020820190506124245f830184612402565b92915050565b5f6101008201905061243e5f83018b612402565b61244b602083018a6122e9565b61245860408301896122b8565b6124656060830188612402565b61247260808301876122e9565b61247f60a08301866122e9565b61248c60c08301856122b8565b61249960e08301846122b8565b9998505050505050505050565b5f80604083850312156124bc576124bb612311565b5b5f6124c98582860161235b565b92505060206124da8582860161235b565b9150509250929050565b7f4e487b71000000000000000000000000000000000000000000000000000000005f52602260045260245ffd5b5f600282049050600182168061252857607f821691505b60208210810361253b5761253a6124e4565b5b50919050565b7f6e6f7420656e6f75676820636f696e00000000000000000000000000000000005f82015250565b5f612575600f8361220d565b915061258082612541565b602082019050919050565b5f6020820190508181035f8301526125a281612569565b9050919050565b7f796f752063616e206e6f7420747261736e6665722074686973206164647265735f8201527f7300000000000000000000000000000000000000000000000000000000000000602082015250565b5f61260360218361220d565b915061260e826125a9565b604082019050919050565b5f6020820190508181035f830152612630816125f7565b9050919050565b7f796f75277265206e6f74206f776e6572000000000000000000000000000000005f82015250565b5f61266b60108361220d565b915061267682612637565b602082019050919050565b5f6020820190508181035f8301526126988161265f565b9050919050565b7f546869732061646472657373206973206e6f742061646d696e000000000000005f82015250565b5f6126d360198361220d565b91506126de8261269f565b602082019050919050565b5f6020820190508181035f830152612700816126c7565b9050919050565b7f5472616e73616374696f6e206e6f7420666f756e6420696e2074686520696e645f8201527f6578000000000000000000000000000000000000000000000000000000000000602082015250565b5f61276160228361220d565b915061276c82612707565b604082019050919050565b5f6020820190508181035f83015261278e81612755565b9050919050565b7f4e487b71000000000000000000000000000000000000000000000000000000005f52603260045260245ffd5b7f54686973207472616e73616374696f6e2068617320616c7265616479206265655f8201527f6e20636865636b65640000000000000000000000000000000000000000000000602082015250565b5f61281c60298361220d565b9150612827826127c2565b604082019050919050565b5f6020820190508181035f83015261284981612810565b9050919050565b7f4e487b71000000000000000000000000000000000000000000000000000000005f52601160045260245ffd5b5f612887826122e0565b91507fffffffffffffffffffffffffffffffffffffffffffffffffffffffffffffffff82036128b9576128b8612850565b5b600182019050919050565b7f796f7520617265206e6f74206d65726368616e740000000000000000000000005f82015250565b5f6128f860148361220d565b9150612903826128c4565b602082019050919050565b5f6020820190508181035f830152612925816128ec565b9050919050565b5f612936826122e0565b9150612941836122e0565b925082820190508082111561295957612958612850565b5b92915050565b7f7472616e73616374696f6e20636f756c646e2774206275726e207573657227735f8201527f20636f696e2062656361757365207468657265206e6f7420656e6f756768206360208201527f6f696e0000000000000000000000000000000000000000000000000000000000604082015250565b5f6129df60438361220d565b91506129ea8261295f565b606082019050919050565b5f6020820190508181035f830152612a0c816129d3565b9050919050565b5f612a1d826122e0565b9150612a28836122e0565b9250828203905081811115612a4057612a3f612850565b5b92915050565b5f8160601b9050919050565b5f612a5c82612a46565b9050919050565b5f612a6d82612a52565b9050919050565b612a85612a8082612334565b612a63565b82525050565b5f612a968284612a74565b60148201915081905092915050565b5f81519050919050565b5f81905092915050565b5f612ac382612aa5565b612acd8185612aaf565b9350612add81856020860161221d565b80840191505092915050565b5f612af48285612ab9565b9150612b008284612ab9565b91508190509392505050565b7f546865206e756d626572206f6620636f6e6669726d6174696f6e7320726571755f8201527f6972656420666f722070726f63657373696e6720697320696e7375666669636960208201527f656e740000000000000000000000000000000000000000000000000000000000604082015250565b5f612b8c60438361220d565b9150612b9782612b0c565b606082019050919050565b5f6020820190508181035f830152612bb981612b80565b9050919050565b7f7573657220686173206e6f7420656e6f75676874206d6f6e65790000000000005f82015250565b5f612bf4601a8361220d565b9150612bff82612bc0565b602082019050919050565b5f6020820190508181035f830152612c2181612be8565b905091905056fea2646970667358221220501867140a898d4ef706e4d7ec8bd0e85b7de31db5a8dfe93d9e33773bd96d0d64736f6c63430008140033",
  "immutableReferences": {},
  "source": "// SPDX-License-Identifier: MIT\n\npragma solidity >=0.7.0 <0.9.0;\n\n\ncontract fourPartyModel {\n\n    // mapping\n    mapping(address => uint) private _balances;\n\n    // \n    mapping(address => bool) private _brands;\n    mapping(address => bool) private _acquires;\n    mapping(address => bool) private _issuers;\n    mapping(address => bool) private _merchants;\n\n    uint256 private _totalSupply;\n\n    string  private _name   = \"KINDAI JPN\";\n    string  private _symbol = \"KDJPN\";\n    address private _owner;\n\n    constructor() {\n        _owner = msg.sender;\n    }\n\n    function name() external view returns (string memory) {\n        string memory nameCopy = _name;\n        return nameCopy;\n    }\n\n    function symbol() external view returns (string memory) {\n        string memory symbolCopy = _symbol;\n        return symbolCopy;\n    }\n\n    function totalSupply() external view returns (uint256) {\n        return _totalSupply;\n    }\n    function ownerCheck() external view returns (bool) {\n        return msg.sender == _owner;\n    }\n    function ownerAddress() external view returns (address) {\n        return _owner;\n    }\n    modifier onlyOwner {\n        require(msg.sender == _owner, \"you're not owner\");\n        _;\n    }\n\n    modifier onlyAcquire {\n        require(_acquires[msg.sender]);\n        _;\n    }\n    // change state of address\n    function setModifierUser(address account, uint role) public onlyOwner{\n        if( role == 0 ){\n            _brands[account] = !_brands[account];\n        }\n        else if ( role == 1 ) {\n            _acquires[account] = !_acquires[account];\n        }\n        else if ( role == 2 ) {\n            _issuers[account] = !_issuers[account];\n        }\n    }\n\n    // change state of address and the address make to merchant\n    function setModifierMerchant(address account) public onlyAcquire{\n            _merchants[account] = !_merchants[account];\n    }\n \n    //  with log\n    event NewMint(address indexed to, uint amount);\n    function mint(address account, uint amount) public onlyAdmin{\n        _setBalance(account, balanceOf(account) + amount);\n        _totalSupply += amount;\n        emit NewMint(account, amount);\n    }\n\n    \n    // burn  with log\n    event Newburn(address indexed to, uint amount);\n    function burn(address account, uint amount) public onlyAdmin{\n        require(balanceOf(account) > amount, \"transaction couldn't burn user's coin because there not enough coin\");\n        _setBalance(account, balanceOf(account) - amount);\n        _totalSupply -= amount;\n        emit Newburn(account, amount);\n    }    \n    // \n    function _setBalance(address account, uint amount) private {\n        _balances[account] = amount;\n    }\n    // \n    function balanceOf(address account) public view returns (uint256) {\n        return _balances[account];\n    }\n    // \n    function _transfer(address from , address to, uint amount) private {\n        require(balanceOf(from) > amount, \"user has not enought money\");\n        \n        _setBalance(from , balanceOf(from) - amount );\n        _setBalance(to , balanceOf(to) + amount );\n\n    }\n    // multisig\n    struct Transfer {\n        address to;\n        uint256 amount;\n        bool executed;\n        address ownerAddress;\n        uint256 requiredConfirmations;\n        uint256 totalConfirmations;\n        bool isConfirmByIssuer;\n        bool isConfirmByBrand;\n    }\n\n    // \n    mapping(address => Transfer[]) public transfers;\n    // \n    function submitTransfer(address _to, uint256 _amount) external {\n        require(balanceOf(msg.sender) > _amount, \"not enough coin\" );\n        require(_merchants[_to], \"you can not trasnfer this address\" );\n        Transfer memory newTransfer = \n            Transfer({\n                to: _to,\n                amount: _amount,\n                executed: false,\n                ownerAddress: msg.sender,\n                requiredConfirmations: 1,\n                totalConfirmations: 0,\n                isConfirmByIssuer: false,\n                isConfirmByBrand: false\n            });\n        transfers[msg.sender].push(newTransfer);\n    }\n\n    modifier onlyAdmin {\n        require(_brands[msg.sender] || _issuers[msg.sender], \"This address is not admin\");\n        _;\n    }\n\n    \n    // brand check\n    function checkBrand() public view returns (bool)  {\n        return _brands[msg.sender];\n    }\n    // issuer check\n    function checkIssuer() public view returns (bool)  {\n        return _issuers[msg.sender];\n    }\n    // acquire check\n    function checkAcquire() public view returns (bool)  {\n        return _acquires[msg.sender];\n    }\n    // merchant check\n    function checkMerchant() public view returns (bool) {\n        return _merchants[msg.sender];\n    }\n\n\n    // \n    // brand, issuer tranfer\n    function confirmTransfer(address _userAddress,uint256 _transferIndex) external onlyAdmin {\n        require(_transferIndex < transfers[_userAddress].length, \"Transaction not found in the index\");\n        bool isBrand = _brands[msg.sender];\n        bool isIssuer = _issuers[msg.sender];\n        if (isBrand) {\n            require(!transfers[_userAddress][_transferIndex].isConfirmByIssuer, \"This transaction has already been checked\");\n            transfers[_userAddress][_transferIndex].isConfirmByIssuer = true;\n            transfers[_userAddress][_transferIndex].totalConfirmations++;\n        }\n        if (isIssuer) {\n            require(!transfers[_userAddress][_transferIndex].isConfirmByBrand, \"This transaction has already been checked\");\n            transfers[_userAddress][_transferIndex].isConfirmByBrand = true;\n            transfers[_userAddress][_transferIndex].totalConfirmations++;\n        }\n\n        if (transfers[_userAddress][_transferIndex].totalConfirmations >= transfers[_userAddress][_transferIndex].requiredConfirmations) {\n            transfers[_userAddress][_transferIndex].executed = true;\n            executeTransfer(_userAddress,_transferIndex);\n        }\n    }\n\n    event NewExecutedTransfer(address indexed from,address indexed to, uint amount);\n\n    // \n    // transferIndex\n    function executeTransfer(address _userAddress, uint256 _transferIndex) internal {\n        require(_transferIndex < transfers[_userAddress].length, \"Transaction not found in the index\");\n        require(transfers[_userAddress][_transferIndex].executed == true, \"The number of confirmations required for processing is insufficient\");\n    \n        _transfer(\n            transfers[_userAddress][_transferIndex].ownerAddress, \n            transfers[_userAddress][_transferIndex].to, \n            transfers[_userAddress][_transferIndex].amount\n            );\n            \n        emit NewExecutedTransfer(\n            transfers[_userAddress][_transferIndex].ownerAddress, \n            transfers[_userAddress][_transferIndex].to, \n            transfers[_userAddress][_transferIndex].amount\n            );\n        delete transfers[_userAddress][_transferIndex];\n    }\n\n    mapping(address => address) private _merchantCodeToAddress;\n    mapping(address => address) private _AddressToMerchantCodes;\n\n    event NewMerchantCode(address indexed merchantCode);\n    function makeMerchantCode(address _acquireAddress, address _merchantAddress) public onlyAcquire{\n        bytes memory address1Bytes = abi.encodePacked(_merchantAddress);\n        bytes memory address2Bytes = abi.encodePacked(_acquireAddress);\n        bytes memory combinedBytes = abi.encodePacked(address1Bytes, address2Bytes);\n        address merchantCode = address(uint160(uint(keccak256(combinedBytes))));\n        _merchantCodeToAddress[merchantCode] = _merchantAddress;\n        _AddressToMerchantCodes[_merchantAddress] = merchantCode;\n        emit NewMerchantCode(merchantCode);\n    }\n\n    function showMerchantAddress(address merchantCode) public view returns (address) {\n        require(_merchantCodeToAddress[merchantCode] != address(0), \"you are not merchant\");\n        return _merchantCodeToAddress[merchantCode];\n    }\n\n\n    function showMerchantCode(address merchantAddress) public view returns (address) {\n        require(_AddressToMerchantCodes[merchantAddress] != address(0), \"you are not merchant\");\n        return _AddressToMerchantCodes[merchantAddress];\n    }\n\n}",
  "sourcePath": "/Users/kim/projects/tickets/blockchain/contracts/fourPartyModel.sol",
  "compiler": {
    "name": "solc",
    "version": "0.8.20+commit.a1b79de6.Emscripten.clang"
  },
  "schemaVersion": "3.4.16",
  "updatedAt": "2023-12-01T04:43:43.090Z",
  "networkType": "ethereum",
  "devdoc": {
    "kind": "dev",
    "methods": {},
    "version": 1
  },
  "userdoc": {
    "kind": "user",
    "methods": {},
    "version": 1
  }
}