{
  "contractName": "fourPartyModel",
  "abi": [
    {
      "inputs": [],
      "stateMutability": "nonpayable",
      "type": "constructor"
    },
    {
      "anonymous": false,
      "inputs": [
        {
          "indexed": true,
          "internalType": "address",
          "name": "from",
          "type": "address"
        },
        {
          "indexed": true,
          "internalType": "address",
          "name": "to",
          "type": "address"
        },
        {
          "indexed": false,
          "internalType": "uint256",
          "name": "amount",
          "type": "uint256"
        }
      ],
      "name": "NewExecutedTransfer",
      "type": "event"
    },
    {
      "anonymous": false,
      "inputs": [
        {
          "indexed": true,
          "internalType": "address",
          "name": "merchantCode",
          "type": "address"
        }
      ],
      "name": "NewMerchantCode",
      "type": "event"
    },
    {
      "anonymous": false,
      "inputs": [
        {
          "indexed": true,
          "internalType": "address",
          "name": "to",
          "type": "address"
        },
        {
          "indexed": false,
          "internalType": "uint256",
          "name": "amount",
          "type": "uint256"
        }
      ],
      "name": "NewMint",
      "type": "event"
    },
    {
      "anonymous": false,
      "inputs": [
        {
          "indexed": true,
          "internalType": "address",
          "name": "to",
          "type": "address"
        },
        {
          "indexed": false,
          "internalType": "uint256",
          "name": "amount",
          "type": "uint256"
        }
      ],
      "name": "Newburn",
      "type": "event"
    },
    {
      "inputs": [
        {
          "internalType": "address",
          "name": "",
          "type": "address"
        },
        {
          "internalType": "uint256",
          "name": "",
          "type": "uint256"
        }
      ],
      "name": "transfers",
      "outputs": [
        {
          "internalType": "address",
          "name": "to",
          "type": "address"
        },
        {
          "internalType": "uint256",
          "name": "amount",
          "type": "uint256"
        },
        {
          "internalType": "bool",
          "name": "executed",
          "type": "bool"
        },
        {
          "internalType": "address",
          "name": "ownerAddress",
          "type": "address"
        },
        {
          "internalType": "uint256",
          "name": "requiredConfirmations",
          "type": "uint256"
        },
        {
          "internalType": "uint256",
          "name": "totalConfirmations",
          "type": "uint256"
        },
        {
          "internalType": "bool",
          "name": "isConfirmByIssuer",
          "type": "bool"
        },
        {
          "internalType": "bool",
          "name": "isConfirmByBrand",
          "type": "bool"
        }
      ],
      "stateMutability": "view",
      "type": "function",
      "constant": true
    },
    {
      "inputs": [],
      "name": "name",
      "outputs": [
        {
          "internalType": "string",
          "name": "",
          "type": "string"
        }
      ],
      "stateMutability": "view",
      "type": "function",
      "constant": true
    },
    {
      "inputs": [],
      "name": "symbol",
      "outputs": [
        {
          "internalType": "string",
          "name": "",
          "type": "string"
        }
      ],
      "stateMutability": "view",
      "type": "function",
      "constant": true
    },
    {
      "inputs": [],
      "name": "totalSupply",
      "outputs": [
        {
          "internalType": "uint256",
          "name": "",
          "type": "uint256"
        }
      ],
      "stateMutability": "view",
      "type": "function",
      "constant": true
    },
    {
      "inputs": [
        {
          "internalType": "address",
          "name": "account",
          "type": "address"
        },
        {
          "internalType": "uint256",
          "name": "role",
          "type": "uint256"
        }
      ],
      "name": "setModifierUser",
      "outputs": [],
      "stateMutability": "nonpayable",
      "type": "function"
    },
    {
      "inputs": [
        {
          "internalType": "address",
          "name": "account",
          "type": "address"
        }
      ],
      "name": "setModifierMerchant",
      "outputs": [],
      "stateMutability": "nonpayable",
      "type": "function"
    },
    {
      "inputs": [
        {
          "internalType": "address",
          "name": "account",
          "type": "address"
        },
        {
          "internalType": "uint256",
          "name": "amount",
          "type": "uint256"
        }
      ],
      "name": "mint",
      "outputs": [],
      "stateMutability": "nonpayable",
      "type": "function"
    },
    {
      "inputs": [
        {
          "internalType": "address",
          "name": "account",
          "type": "address"
        },
        {
          "internalType": "uint256",
          "name": "amount",
          "type": "uint256"
        }
      ],
      "name": "burn",
      "outputs": [],
      "stateMutability": "nonpayable",
      "type": "function"
    },
    {
      "inputs": [
        {
          "internalType": "address",
          "name": "account",
          "type": "address"
        }
      ],
      "name": "balanceOf",
      "outputs": [
        {
          "internalType": "uint256",
          "name": "",
          "type": "uint256"
        }
      ],
      "stateMutability": "view",
      "type": "function",
      "constant": true
    },
    {
      "inputs": [
        {
          "internalType": "address",
          "name": "_to",
          "type": "address"
        },
        {
          "internalType": "uint256",
          "name": "_amount",
          "type": "uint256"
        }
      ],
      "name": "submitTransfer",
      "outputs": [],
      "stateMutability": "nonpayable",
      "type": "function"
    },
    {
      "inputs": [],
      "name": "checkBrand",
      "outputs": [
        {
          "internalType": "bool",
          "name": "",
          "type": "bool"
        }
      ],
      "stateMutability": "view",
      "type": "function",
      "constant": true
    },
    {
      "inputs": [],
      "name": "checkIssuer",
      "outputs": [
        {
          "internalType": "bool",
          "name": "",
          "type": "bool"
        }
      ],
      "stateMutability": "view",
      "type": "function",
      "constant": true
    },
    {
      "inputs": [],
      "name": "checkAcquire",
      "outputs": [
        {
          "internalType": "bool",
          "name": "",
          "type": "bool"
        }
      ],
      "stateMutability": "view",
      "type": "function",
      "constant": true
    },
    {
      "inputs": [],
      "name": "checkMerchant",
      "outputs": [
        {
          "internalType": "bool",
          "name": "",
          "type": "bool"
        }
      ],
      "stateMutability": "view",
      "type": "function",
      "constant": true
    },
    {
      "inputs": [
        {
          "internalType": "address",
          "name": "_userAddress",
          "type": "address"
        },
        {
          "internalType": "uint256",
          "name": "_transferIndex",
          "type": "uint256"
        }
      ],
      "name": "confirmTransfer",
      "outputs": [],
      "stateMutability": "nonpayable",
      "type": "function"
    },
    {
      "inputs": [
        {
          "internalType": "address",
          "name": "_acquireAddress",
          "type": "address"
        },
        {
          "internalType": "address",
          "name": "_merchantAddress",
          "type": "address"
        }
      ],
      "name": "makeMerchantCode",
      "outputs": [],
      "stateMutability": "nonpayable",
      "type": "function"
    },
    {
      "inputs": [
        {
          "internalType": "address",
          "name": "merchantCode",
          "type": "address"
        }
      ],
      "name": "showMerchantAddress",
      "outputs": [
        {
          "internalType": "address",
          "name": "",
          "type": "address"
        }
      ],
      "stateMutability": "view",
      "type": "function",
      "constant": true
    },
    {
      "inputs": [
        {
          "internalType": "address",
          "name": "merchantAddress",
          "type": "address"
        }
      ],
      "name": "showMerchantCode",
      "outputs": [
        {
          "internalType": "address",
          "name": "",
          "type": "address"
        }
      ],
      "stateMutability": "view",
      "type": "function",
      "constant": true
    }
  ],
  "bytecode": "0x60806040526040518060400160405280600a81526020017f4b494e444149204a504e00000000000000000000000000000000000000000000815250600690816200004a919062000349565b506040518060400160405280600581526020017f4b444a504e0000000000000000000000000000000000000000000000000000008152506007908162000091919062000349565b503480156200009e575f80fd5b503360085f6101000a81548173ffffffffffffffffffffffffffffffffffffffff021916908373ffffffffffffffffffffffffffffffffffffffff1602179055506200042d565b5f81519050919050565b7f4e487b71000000000000000000000000000000000000000000000000000000005f52604160045260245ffd5b7f4e487b71000000000000000000000000000000000000000000000000000000005f52602260045260245ffd5b5f60028204905060018216806200016157607f821691505b6020821081036200017757620001766200011c565b5b50919050565b5f819050815f5260205f209050919050565b5f6020601f8301049050919050565b5f82821b905092915050565b5f60088302620001db7fffffffffffffffffffffffffffffffffffffffffffffffffffffffffffffffff826200019e565b620001e786836200019e565b95508019841693508086168417925050509392505050565b5f819050919050565b5f819050919050565b5f620002316200022b6200022584620001ff565b62000208565b620001ff565b9050919050565b5f819050919050565b6200024c8362000211565b620002646200025b8262000238565b848454620001aa565b825550505050565b5f90565b6200027a6200026c565b6200028781848462000241565b505050565b5b81811015620002ae57620002a25f8262000270565b6001810190506200028d565b5050565b601f821115620002fd57620002c7816200017d565b620002d2846200018f565b81016020851015620002e2578190505b620002fa620002f1856200018f565b8301826200028c565b50505b505050565b5f82821c905092915050565b5f6200031f5f198460080262000302565b1980831691505092915050565b5f6200033983836200030e565b9150826002028217905092915050565b6200035482620000e5565b67ffffffffffffffff81111562000370576200036f620000ef565b5b6200037c825462000149565b62000389828285620002b2565b5f60209050601f831160018114620003bf575f8415620003aa578287015190505b620003b685826200032c565b86555062000425565b601f198416620003cf866200017d565b5f5b82811015620003f857848901518255600182019150602085019450602081019050620003d1565b8683101562000418578489015162000414601f8916826200030e565b8355505b6001600288020188555050505b505050505050565b612a2c806200043b5f395ff3fe608060405234801561000f575f80fd5b5060043610610114575f3560e01c806357b1dbe3116100a05780639dc29fac1161006f5780639dc29fac146102e5578063a6613c4614610301578063aeadbd191461031f578063d28125c01461033d578063e06753a51461035957610114565b806357b1dbe31461024257806370a0823114610279578063725039ff146102a957806395d89b41146102c757610114565b80631d5e0bad116100e75780631d5e0bad1461018e578063250e3a92146101aa57806325eb5f06146101c657806340c10f19146101f6578063559960da1461021257610114565b806306fdde031461011857806317e9491a1461013657806318160ddd146101545780631c987d5714610172575b5f80fd5b610120610375565b60405161012d91906120e9565b60405180910390f35b61013e61040a565b60405161014b9190612123565b60405180910390f35b61015c61045a565b6040516101699190612154565b60405180910390f35b61018c600480360381019061018791906121f5565b610463565b005b6101a860048036038101906101a391906121f5565b61068f565b005b6101c460048036038101906101bf91906121f5565b610920565b005b6101e060048036038101906101db9190612233565b610f98565b6040516101ed919061226d565b60405180910390f35b610210600480360381019061020b91906121f5565b6110c7565b005b61022c60048036038101906102279190612233565b6111dd565b604051610239919061226d565b60405180910390f35b61025c600480360381019061025791906121f5565b61130c565b604051610270989796959493929190612286565b60405180910390f35b610293600480360381019061028e9190612233565b6113ce565b6040516102a09190612154565b60405180910390f35b6102b1611413565b6040516102be9190612123565b60405180910390f35b6102cf611463565b6040516102dc91906120e9565b60405180910390f35b6102ff60048036038101906102fa91906121f5565b6114f8565b005b6103096116a3565b6040516103169190612123565b60405180910390f35b6103276116f3565b6040516103349190612123565b60405180910390f35b61035760048036038101906103529190612302565b611743565b005b610373600480360381019061036e9190612233565b61194e565b005b60605f600680546103859061236d565b80601f01602080910402602001604051908101604052809291908181526020018280546103b19061236d565b80156103fc5780601f106103d3576101008083540402835291602001916103fc565b820191905f5260205f20905b8154815290600101906020018083116103df57829003601f168201915b505050505090508091505090565b5f60045f3373ffffffffffffffffffffffffffffffffffffffff1673ffffffffffffffffffffffffffffffffffffffff1681526020019081526020015f205f9054906101000a900460ff16905090565b5f600554905090565b8061046d336113ce565b116104ad576040517f08c379a00000000000000000000000000000000000000000000000000000000081526004016104a4906123e7565b60405180910390fd5b5f6040518061010001604052808473ffffffffffffffffffffffffffffffffffffffff1681526020018381526020015f151581526020013373ffffffffffffffffffffffffffffffffffffffff168152602001600181526020015f81526020015f151581526020015f1515815250905060095f3373ffffffffffffffffffffffffffffffffffffffff1673ffffffffffffffffffffffffffffffffffffffff1681526020019081526020015f2081908060018154018082558091505060019003905f5260205f2090600602015f909190919091505f820151815f015f6101000a81548173ffffffffffffffffffffffffffffffffffffffff021916908373ffffffffffffffffffffffffffffffffffffffff160217905550602082015181600101556040820151816002015f6101000a81548160ff02191690831515021790555060608201518160020160016101000a81548173ffffffffffffffffffffffffffffffffffffffff021916908373ffffffffffffffffffffffffffffffffffffffff1602179055506080820151816003015560a0820151816004015560c0820151816005015f6101000a81548160ff02191690831515021790555060e08201518160050160016101000a81548160ff0219169083151502179055505050505050565b60085f9054906101000a900473ffffffffffffffffffffffffffffffffffffffff1673ffffffffffffffffffffffffffffffffffffffff163373ffffffffffffffffffffffffffffffffffffffff161461071e576040517f08c379a00000000000000000000000000000000000000000000000000000000081526004016107159061244f565b60405180910390fd5b5f81036107c85760015f8373ffffffffffffffffffffffffffffffffffffffff1673ffffffffffffffffffffffffffffffffffffffff1681526020019081526020015f205f9054906101000a900460ff161560015f8473ffffffffffffffffffffffffffffffffffffffff1673ffffffffffffffffffffffffffffffffffffffff1681526020019081526020015f205f6101000a81548160ff02191690831515021790555061091c565b600181036108735760025f8373ffffffffffffffffffffffffffffffffffffffff1673ffffffffffffffffffffffffffffffffffffffff1681526020019081526020015f205f9054906101000a900460ff161560025f8473ffffffffffffffffffffffffffffffffffffffff1673ffffffffffffffffffffffffffffffffffffffff1681526020019081526020015f205f6101000a81548160ff02191690831515021790555061091b565b6002810361091a5760035f8373ffffffffffffffffffffffffffffffffffffffff1673ffffffffffffffffffffffffffffffffffffffff1681526020019081526020015f205f9054906101000a900460ff161560035f8473ffffffffffffffffffffffffffffffffffffffff1673ffffffffffffffffffffffffffffffffffffffff1681526020019081526020015f205f6101000a81548160ff0219169083151502179055505b5b5b5050565b60015f3373ffffffffffffffffffffffffffffffffffffffff1673ffffffffffffffffffffffffffffffffffffffff1681526020019081526020015f205f9054906101000a900460ff16806109bb575060035f3373ffffffffffffffffffffffffffffffffffffffff1673ffffffffffffffffffffffffffffffffffffffff1681526020019081526020015f205f9054906101000a900460ff165b6109fa576040517f08c379a00000000000000000000000000000000000000000000000000000000081526004016109f1906124b7565b60405180910390fd5b60095f8373ffffffffffffffffffffffffffffffffffffffff1673ffffffffffffffffffffffffffffffffffffffff1681526020019081526020015f20805490508110610a7c576040517f08c379a0000000000000000000000000000000000000000000000000000000008152600401610a7390612545565b60405180910390fd5b5f60015f3373ffffffffffffffffffffffffffffffffffffffff1673ffffffffffffffffffffffffffffffffffffffff1681526020019081526020015f205f9054906101000a900460ff1690505f60035f3373ffffffffffffffffffffffffffffffffffffffff1673ffffffffffffffffffffffffffffffffffffffff1681526020019081526020015f205f9054906101000a900460ff1690508115610cb15760095f8573ffffffffffffffffffffffffffffffffffffffff1673ffffffffffffffffffffffffffffffffffffffff1681526020019081526020015f208381548110610b6b57610b6a612563565b5b905f5260205f2090600602016005015f9054906101000a900460ff1615610bc7576040517f08c379a0000000000000000000000000000000000000000000000000000000008152600401610bbe90612600565b60405180910390fd5b600160095f8673ffffffffffffffffffffffffffffffffffffffff1673ffffffffffffffffffffffffffffffffffffffff1681526020019081526020015f208481548110610c1857610c17612563565b5b905f5260205f2090600602016005015f6101000a81548160ff02191690831515021790555060095f8573ffffffffffffffffffffffffffffffffffffffff1673ffffffffffffffffffffffffffffffffffffffff1681526020019081526020015f208381548110610c8c57610c8b612563565b5b905f5260205f2090600602016004015f815480929190610cab9061264b565b91905055505b8015610e4e5760095f8573ffffffffffffffffffffffffffffffffffffffff1673ffffffffffffffffffffffffffffffffffffffff1681526020019081526020015f208381548110610d0657610d05612563565b5b905f5260205f20906006020160050160019054906101000a900460ff1615610d63576040517f08c379a0000000000000000000000000000000000000000000000000000000008152600401610d5a90612600565b60405180910390fd5b600160095f8673ffffffffffffffffffffffffffffffffffffffff1673ffffffffffffffffffffffffffffffffffffffff1681526020019081526020015f208481548110610db457610db3612563565b5b905f5260205f20906006020160050160016101000a81548160ff02191690831515021790555060095f8573ffffffffffffffffffffffffffffffffffffffff1673ffffffffffffffffffffffffffffffffffffffff1681526020019081526020015f208381548110610e2957610e28612563565b5b905f5260205f2090600602016004015f815480929190610e489061264b565b91905055505b60095f8573ffffffffffffffffffffffffffffffffffffffff1673ffffffffffffffffffffffffffffffffffffffff1681526020019081526020015f208381548110610e9d57610e9c612563565b5b905f5260205f2090600602016003015460095f8673ffffffffffffffffffffffffffffffffffffffff1673ffffffffffffffffffffffffffffffffffffffff1681526020019081526020015f208481548110610efc57610efb612563565b5b905f5260205f2090600602016004015410610f9257600160095f8673ffffffffffffffffffffffffffffffffffffffff1673ffffffffffffffffffffffffffffffffffffffff1681526020019081526020015f208481548110610f6257610f61612563565b5b905f5260205f2090600602016002015f6101000a81548160ff021916908315150217905550610f918484611a41565b5b50505050565b5f8073ffffffffffffffffffffffffffffffffffffffff16600b5f8473ffffffffffffffffffffffffffffffffffffffff1673ffffffffffffffffffffffffffffffffffffffff1681526020019081526020015f205f9054906101000a900473ffffffffffffffffffffffffffffffffffffffff1673ffffffffffffffffffffffffffffffffffffffff1603611063576040517f08c379a000000000000000000000000000000000000000000000000000000000815260040161105a906126dc565b60405180910390fd5b600b5f8373ffffffffffffffffffffffffffffffffffffffff1673ffffffffffffffffffffffffffffffffffffffff1681526020019081526020015f205f9054906101000a900473ffffffffffffffffffffffffffffffffffffffff169050919050565b60085f9054906101000a900473ffffffffffffffffffffffffffffffffffffffff1673ffffffffffffffffffffffffffffffffffffffff163373ffffffffffffffffffffffffffffffffffffffff1614611156576040517f08c379a000000000000000000000000000000000000000000000000000000000815260040161114d9061244f565b60405180910390fd5b6111738282611164856113ce565b61116e91906126fa565b611f91565b8060055f82825461118491906126fa565b925050819055508173ffffffffffffffffffffffffffffffffffffffff167f52277f0b4a9b555c5aa96900a13546f972bda413737ec164aac947c87eec6024826040516111d19190612154565b60405180910390a25050565b5f8073ffffffffffffffffffffffffffffffffffffffff16600a5f8473ffffffffffffffffffffffffffffffffffffffff1673ffffffffffffffffffffffffffffffffffffffff1681526020019081526020015f205f9054906101000a900473ffffffffffffffffffffffffffffffffffffffff1673ffffffffffffffffffffffffffffffffffffffff16036112a8576040517f08c379a000000000000000000000000000000000000000000000000000000000815260040161129f906126dc565b60405180910390fd5b600a5f8373ffffffffffffffffffffffffffffffffffffffff1673ffffffffffffffffffffffffffffffffffffffff1681526020019081526020015f205f9054906101000a900473ffffffffffffffffffffffffffffffffffffffff169050919050565b6009602052815f5260405f208181548110611325575f80fd5b905f5260205f2090600602015f9150915050805f015f9054906101000a900473ffffffffffffffffffffffffffffffffffffffff1690806001015490806002015f9054906101000a900460ff16908060020160019054906101000a900473ffffffffffffffffffffffffffffffffffffffff1690806003015490806004015490806005015f9054906101000a900460ff16908060050160019054906101000a900460ff16905088565b5f805f8373ffffffffffffffffffffffffffffffffffffffff1673ffffffffffffffffffffffffffffffffffffffff1681526020019081526020015f20549050919050565b5f60015f3373ffffffffffffffffffffffffffffffffffffffff1673ffffffffffffffffffffffffffffffffffffffff1681526020019081526020015f205f9054906101000a900460ff16905090565b60605f600780546114739061236d565b80601f016020809104026020016040519081016040528092919081815260200182805461149f9061236d565b80156114ea5780601f106114c1576101008083540402835291602001916114ea565b820191905f5260205f20905b8154815290600101906020018083116114cd57829003601f168201915b505050505090508091505090565b60015f3373ffffffffffffffffffffffffffffffffffffffff1673ffffffffffffffffffffffffffffffffffffffff1681526020019081526020015f205f9054906101000a900460ff1680611593575060035f3373ffffffffffffffffffffffffffffffffffffffff1673ffffffffffffffffffffffffffffffffffffffff1681526020019081526020015f205f9054906101000a900460ff165b6115d2576040517f08c379a00000000000000000000000000000000000000000000000000000000081526004016115c9906124b7565b60405180910390fd5b806115dc836113ce565b1161161c576040517f08c379a0000000000000000000000000000000000000000000000000000000008152600401611613906127c3565b60405180910390fd5b611639828261162a856113ce565b61163491906127e1565b611f91565b8060055f82825461164a91906127e1565b925050819055508173ffffffffffffffffffffffffffffffffffffffff167fbaa05e9944b2fc09f14164d302b9620caeee7277f44cf7df5b518d4ce3251704826040516116979190612154565b60405180910390a25050565b5f60025f3373ffffffffffffffffffffffffffffffffffffffff1673ffffffffffffffffffffffffffffffffffffffff1681526020019081526020015f205f9054906101000a900460ff16905090565b5f60035f3373ffffffffffffffffffffffffffffffffffffffff1673ffffffffffffffffffffffffffffffffffffffff1681526020019081526020015f205f9054906101000a900460ff16905090565b60025f3373ffffffffffffffffffffffffffffffffffffffff1673ffffffffffffffffffffffffffffffffffffffff1681526020019081526020015f205f9054906101000a900460ff16611795575f80fd5b5f816040516020016117a79190612859565b60405160208183030381529060405290505f836040516020016117ca9190612859565b60405160208183030381529060405290505f82826040516020016117ef9291906128b7565b60405160208183030381529060405290505f81805190602001205f1c905084600a5f8373ffffffffffffffffffffffffffffffffffffffff1673ffffffffffffffffffffffffffffffffffffffff1681526020019081526020015f205f6101000a81548173ffffffffffffffffffffffffffffffffffffffff021916908373ffffffffffffffffffffffffffffffffffffffff16021790555080600b5f8773ffffffffffffffffffffffffffffffffffffffff1673ffffffffffffffffffffffffffffffffffffffff1681526020019081526020015f205f6101000a81548173ffffffffffffffffffffffffffffffffffffffff021916908373ffffffffffffffffffffffffffffffffffffffff1602179055508073ffffffffffffffffffffffffffffffffffffffff167f5d5980a0fb4b7e37193fed5f3a5c54ef1fede3059a10486c5ba51bd63215b6fa60405160405180910390a2505050505050565b60025f3373ffffffffffffffffffffffffffffffffffffffff1673ffffffffffffffffffffffffffffffffffffffff1681526020019081526020015f205f9054906101000a900460ff166119a0575f80fd5b60045f8273ffffffffffffffffffffffffffffffffffffffff1673ffffffffffffffffffffffffffffffffffffffff1681526020019081526020015f205f9054906101000a900460ff161560045f8373ffffffffffffffffffffffffffffffffffffffff1673ffffffffffffffffffffffffffffffffffffffff1681526020019081526020015f205f6101000a81548160ff02191690831515021790555050565b60095f8373ffffffffffffffffffffffffffffffffffffffff1673ffffffffffffffffffffffffffffffffffffffff1681526020019081526020015f20805490508110611ac3576040517f08c379a0000000000000000000000000000000000000000000000000000000008152600401611aba90612545565b60405180910390fd5b6001151560095f8473ffffffffffffffffffffffffffffffffffffffff1673ffffffffffffffffffffffffffffffffffffffff1681526020019081526020015f208281548110611b1657611b15612563565b5b905f5260205f2090600602016002015f9054906101000a900460ff16151514611b74576040517f08c379a0000000000000000000000000000000000000000000000000000000008152600401611b6b90612970565b60405180910390fd5b611cd760095f8473ffffffffffffffffffffffffffffffffffffffff1673ffffffffffffffffffffffffffffffffffffffff1681526020019081526020015f208281548110611bc657611bc5612563565b5b905f5260205f20906006020160020160019054906101000a900473ffffffffffffffffffffffffffffffffffffffff1660095f8573ffffffffffffffffffffffffffffffffffffffff1673ffffffffffffffffffffffffffffffffffffffff1681526020019081526020015f208381548110611c4557611c44612563565b5b905f5260205f2090600602015f015f9054906101000a900473ffffffffffffffffffffffffffffffffffffffff1660095f8673ffffffffffffffffffffffffffffffffffffffff1673ffffffffffffffffffffffffffffffffffffffff1681526020019081526020015f208481548110611cc257611cc1612563565b5b905f5260205f20906006020160010154611fd6565b60095f8373ffffffffffffffffffffffffffffffffffffffff1673ffffffffffffffffffffffffffffffffffffffff1681526020019081526020015f208181548110611d2657611d25612563565b5b905f5260205f2090600602015f015f9054906101000a900473ffffffffffffffffffffffffffffffffffffffff1673ffffffffffffffffffffffffffffffffffffffff1660095f8473ffffffffffffffffffffffffffffffffffffffff1673ffffffffffffffffffffffffffffffffffffffff1681526020019081526020015f208281548110611db957611db8612563565b5b905f5260205f20906006020160020160019054906101000a900473ffffffffffffffffffffffffffffffffffffffff1673ffffffffffffffffffffffffffffffffffffffff167f6c9a31cbdcf01aac6933aee0a2e218496cb3d2356c7ba0693d0efc0461f9aa5360095f8673ffffffffffffffffffffffffffffffffffffffff1673ffffffffffffffffffffffffffffffffffffffff1681526020019081526020015f208481548110611e6f57611e6e612563565b5b905f5260205f20906006020160010154604051611e8c9190612154565b60405180910390a360095f8373ffffffffffffffffffffffffffffffffffffffff1673ffffffffffffffffffffffffffffffffffffffff1681526020019081526020015f208181548110611ee357611ee2612563565b5b905f5260205f2090600602015f8082015f6101000a81549073ffffffffffffffffffffffffffffffffffffffff0219169055600182015f9055600282015f6101000a81549060ff02191690556002820160016101000a81549073ffffffffffffffffffffffffffffffffffffffff0219169055600382015f9055600482015f9055600582015f6101000a81549060ff02191690556005820160016101000a81549060ff021916905550505050565b805f808473ffffffffffffffffffffffffffffffffffffffff1673ffffffffffffffffffffffffffffffffffffffff1681526020019081526020015f20819055505050565b80611fe0846113ce565b11612020576040517f08c379a0000000000000000000000000000000000000000000000000000000008152600401612017906129d8565b60405180910390fd5b61203d838261202e866113ce565b61203891906127e1565b611f91565b61205a828261204b856113ce565b61205591906126fa565b611f91565b505050565b5f81519050919050565b5f82825260208201905092915050565b5f5b8381101561209657808201518184015260208101905061207b565b5f8484015250505050565b5f601f19601f8301169050919050565b5f6120bb8261205f565b6120c58185612069565b93506120d5818560208601612079565b6120de816120a1565b840191505092915050565b5f6020820190508181035f83015261210181846120b1565b905092915050565b5f8115159050919050565b61211d81612109565b82525050565b5f6020820190506121365f830184612114565b92915050565b5f819050919050565b61214e8161213c565b82525050565b5f6020820190506121675f830184612145565b92915050565b5f80fd5b5f73ffffffffffffffffffffffffffffffffffffffff82169050919050565b5f61219a82612171565b9050919050565b6121aa81612190565b81146121b4575f80fd5b50565b5f813590506121c5816121a1565b92915050565b6121d48161213c565b81146121de575f80fd5b50565b5f813590506121ef816121cb565b92915050565b5f806040838503121561220b5761220a61216d565b5b5f612218858286016121b7565b9250506020612229858286016121e1565b9150509250929050565b5f602082840312156122485761224761216d565b5b5f612255848285016121b7565b91505092915050565b61226781612190565b82525050565b5f6020820190506122805f83018461225e565b92915050565b5f6101008201905061229a5f83018b61225e565b6122a7602083018a612145565b6122b46040830189612114565b6122c1606083018861225e565b6122ce6080830187612145565b6122db60a0830186612145565b6122e860c0830185612114565b6122f560e0830184612114565b9998505050505050505050565b5f80604083850312156123185761231761216d565b5b5f612325858286016121b7565b9250506020612336858286016121b7565b9150509250929050565b7f4e487b71000000000000000000000000000000000000000000000000000000005f52602260045260245ffd5b5f600282049050600182168061238457607f821691505b60208210810361239757612396612340565b5b50919050565b7f6e6f7420656e6f75676820636f696e00000000000000000000000000000000005f82015250565b5f6123d1600f83612069565b91506123dc8261239d565b602082019050919050565b5f6020820190508181035f8301526123fe816123c5565b9050919050565b7f796f75277265206e6f74206f776e6572000000000000000000000000000000005f82015250565b5f612439601083612069565b915061244482612405565b602082019050919050565b5f6020820190508181035f8301526124668161242d565b9050919050565b7f546869732061646472657373206973206e6f742061646d696e000000000000005f82015250565b5f6124a1601983612069565b91506124ac8261246d565b602082019050919050565b5f6020820190508181035f8301526124ce81612495565b9050919050565b7f5472616e73616374696f6e206e6f7420666f756e6420696e2074686520696e645f8201527f6578000000000000000000000000000000000000000000000000000000000000602082015250565b5f61252f602283612069565b915061253a826124d5565b604082019050919050565b5f6020820190508181035f83015261255c81612523565b9050919050565b7f4e487b71000000000000000000000000000000000000000000000000000000005f52603260045260245ffd5b7f54686973207472616e73616374696f6e2068617320616c7265616479206265655f8201527f6e20636865636b65640000000000000000000000000000000000000000000000602082015250565b5f6125ea602983612069565b91506125f582612590565b604082019050919050565b5f6020820190508181035f830152612617816125de565b9050919050565b7f4e487b71000000000000000000000000000000000000000000000000000000005f52601160045260245ffd5b5f6126558261213c565b91507fffffffffffffffffffffffffffffffffffffffffffffffffffffffffffffffff82036126875761268661261e565b5b600182019050919050565b7f796f7520617265206e6f74206d65726368616e740000000000000000000000005f82015250565b5f6126c6601483612069565b91506126d182612692565b602082019050919050565b5f6020820190508181035f8301526126f3816126ba565b9050919050565b5f6127048261213c565b915061270f8361213c565b92508282019050808211156127275761272661261e565b5b92915050565b7f7472616e73616374696f6e20636f756c646e2774206275726e207573657227735f8201527f20636f696e2062656361757365207468657265206e6f7420656e6f756768206360208201527f6f696e0000000000000000000000000000000000000000000000000000000000604082015250565b5f6127ad604383612069565b91506127b88261272d565b606082019050919050565b5f6020820190508181035f8301526127da816127a1565b9050919050565b5f6127eb8261213c565b91506127f68361213c565b925082820390508181111561280e5761280d61261e565b5b92915050565b5f8160601b9050919050565b5f61282a82612814565b9050919050565b5f61283b82612820565b9050919050565b61285361284e82612190565b612831565b82525050565b5f6128648284612842565b60148201915081905092915050565b5f81519050919050565b5f81905092915050565b5f61289182612873565b61289b818561287d565b93506128ab818560208601612079565b80840191505092915050565b5f6128c28285612887565b91506128ce8284612887565b91508190509392505050565b7f546865206e756d626572206f6620636f6e6669726d6174696f6e7320726571755f8201527f6972656420666f722070726f63657373696e6720697320696e7375666669636960208201527f656e740000000000000000000000000000000000000000000000000000000000604082015250565b5f61295a604383612069565b9150612965826128da565b606082019050919050565b5f6020820190508181035f8301526129878161294e565b9050919050565b7f7573657220686173206e6f7420656e6f75676874206d6f6e65790000000000005f82015250565b5f6129c2601a83612069565b91506129cd8261298e565b602082019050919050565b5f6020820190508181035f8301526129ef816129b6565b905091905056fea2646970667358221220acefca35c6e848ec0fe76b56d0deb862ce7a2fb0843d0ab70ba8325331311e4764736f6c63430008140033",
  "immutableReferences": {},
  "source": "// SPDX-License-Identifier: MIT\n\npragma solidity >=0.7.0 <0.9.0;\n\n\ncontract fourPartyModel {\n\n    // mapping\n    mapping(address => uint) private _balances;\n\n    // \n    mapping(address => bool) private _brands;\n    mapping(address => bool) private _acquires;\n    mapping(address => bool) private _issuers;\n    mapping(address => bool) private _merchants;\n\n    uint256 private _totalSupply;\n\n    string  private _name   = \"KINDAI JPN\";\n    string  private _symbol = \"KDJPN\";\n    address private _owner;\n\n    constructor() {\n        _owner = msg.sender;\n    }\n\n    function name() external view returns (string memory) {\n        string memory nameCopy = _name;\n        return nameCopy;\n    }\n\n    function symbol() external view returns (string memory) {\n        string memory symbolCopy = _symbol;\n        return symbolCopy;\n    }\n\n    function totalSupply() external view returns (uint256) {\n        return _totalSupply;\n    }\n\n    modifier onlyOwner {\n        require(msg.sender == _owner, \"you're not owner\");\n        _;\n    }\n\n    modifier onlyAcquire {\n        require(_acquires[msg.sender]);\n        _;\n    }\n    // change state of address\n    function setModifierUser(address account, uint role) public onlyOwner{\n        if( role == 0 ){\n            _brands[account] = !_brands[account];\n        }\n        else if ( role == 1 ) {\n            _acquires[account] = !_acquires[account];\n        }\n        else if ( role == 2 ) {\n            _issuers[account] = !_issuers[account];\n        }\n    }\n\n    // change state of address and the address make to merchant\n    function setModifierMerchant(address account) public onlyAcquire{\n            _merchants[account] = !_merchants[account];\n    }\n \n    //  with log\n    event NewMint(address indexed to, uint amount);\n    function mint(address account, uint amount) public onlyOwner{\n        _setBalance(account, balanceOf(account) + amount);\n        _totalSupply += amount;\n        emit NewMint(account, amount);\n    }\n\n    \n    // burn  with log\n    event Newburn(address indexed to, uint amount);\n    function burn(address account, uint amount) public onlyAdmin{\n        require(balanceOf(account) > amount, \"transaction couldn't burn user's coin because there not enough coin\");\n        _setBalance(account, balanceOf(account) - amount);\n        _totalSupply -= amount;\n        emit Newburn(account, amount);\n    }    \n    // \n    function _setBalance(address account, uint amount) private {\n        _balances[account] = amount;\n    }\n    // \n    function balanceOf(address account) public view returns (uint256) {\n        return _balances[account];\n    }\n    // \n    function _transfer(address from , address to, uint amount) private {\n        require(balanceOf(from) > amount, \"user has not enought money\");\n        \n        _setBalance(from , balanceOf(from) - amount );\n        _setBalance(to , balanceOf(to) + amount );\n\n    }\n    // multisig\n    struct Transfer {\n        address to;\n        uint256 amount;\n        bool executed;\n        address ownerAddress;\n        uint256 requiredConfirmations;\n        uint256 totalConfirmations;\n        bool isConfirmByIssuer;\n        bool isConfirmByBrand;\n    }\n\n    // \n    mapping(address => Transfer[]) public transfers;\n    // \n    function submitTransfer(address _to, uint256 _amount) external {\n        require(balanceOf(msg.sender) > _amount, \"not enough coin\" );\n        Transfer memory newTransfer = \n            Transfer({\n                to: _to,\n                amount: _amount,\n                executed: false,\n                ownerAddress: msg.sender,\n                requiredConfirmations: 1,\n                totalConfirmations: 0,\n                isConfirmByIssuer: false,\n                isConfirmByBrand: false\n            });\n        transfers[msg.sender].push(newTransfer);\n    }\n\n    modifier onlyAdmin {\n        require(_brands[msg.sender] || _issuers[msg.sender], \"This address is not admin\");\n        _;\n    }\n\n    \n    // brand check\n    function checkBrand() public view returns (bool)  {\n        return _brands[msg.sender];\n    }\n    // issuer check\n    function checkIssuer() public view returns (bool)  {\n        return _issuers[msg.sender];\n    }\n    // acquire check\n    function checkAcquire() public view returns (bool)  {\n        return _acquires[msg.sender];\n    }\n    // merchant check\n    function checkMerchant() public view returns (bool) {\n        return _merchants[msg.sender];\n    }\n\n\n    // \n    // brand, issuer tranfer\n    function confirmTransfer(address _userAddress,uint256 _transferIndex) external onlyAdmin {\n        require(_transferIndex < transfers[_userAddress].length, \"Transaction not found in the index\");\n        bool isBrand = _brands[msg.sender];\n        bool isIssuer = _issuers[msg.sender];\n        if (isBrand) {\n            require(!transfers[_userAddress][_transferIndex].isConfirmByIssuer, \"This transaction has already been checked\");\n            transfers[_userAddress][_transferIndex].isConfirmByIssuer = true;\n            transfers[_userAddress][_transferIndex].totalConfirmations++;\n        }\n        if (isIssuer) {\n            require(!transfers[_userAddress][_transferIndex].isConfirmByBrand, \"This transaction has already been checked\");\n            transfers[_userAddress][_transferIndex].isConfirmByBrand = true;\n            transfers[_userAddress][_transferIndex].totalConfirmations++;\n        }\n\n        if (transfers[_userAddress][_transferIndex].totalConfirmations >= transfers[_userAddress][_transferIndex].requiredConfirmations) {\n            transfers[_userAddress][_transferIndex].executed = true;\n            executeTransfer(_userAddress,_transferIndex);\n        }\n    }\n\n    event NewExecutedTransfer(address indexed from,address indexed to, uint amount);\n\n    // \n    // transferIndex\n    function executeTransfer(address _userAddress, uint256 _transferIndex) internal {\n        require(_transferIndex < transfers[_userAddress].length, \"Transaction not found in the index\");\n        require(transfers[_userAddress][_transferIndex].executed == true, \"The number of confirmations required for processing is insufficient\");\n    \n        _transfer(\n            transfers[_userAddress][_transferIndex].ownerAddress, \n            transfers[_userAddress][_transferIndex].to, \n            transfers[_userAddress][_transferIndex].amount\n            );\n            \n        emit NewExecutedTransfer(\n            transfers[_userAddress][_transferIndex].ownerAddress, \n            transfers[_userAddress][_transferIndex].to, \n            transfers[_userAddress][_transferIndex].amount\n            );\n        delete transfers[_userAddress][_transferIndex];\n    }\n\n    mapping(address => address) private _merchantCodeToAddress;\n    mapping(address => address) private _AddressToMerchantCodes;\n\n    event NewMerchantCode(address indexed merchantCode);\n    function makeMerchantCode(address _acquireAddress, address _merchantAddress) public onlyAcquire{\n        bytes memory address1Bytes = abi.encodePacked(_merchantAddress);\n        bytes memory address2Bytes = abi.encodePacked(_acquireAddress);\n        bytes memory combinedBytes = abi.encodePacked(address1Bytes, address2Bytes);\n        address merchantCode = address(uint160(uint(keccak256(combinedBytes))));\n        _merchantCodeToAddress[merchantCode] = _merchantAddress;\n        _AddressToMerchantCodes[_merchantAddress] = merchantCode;\n        emit NewMerchantCode(merchantCode);\n    }\n\n    function showMerchantAddress(address merchantCode) public view returns (address) {\n        require(_merchantCodeToAddress[merchantCode] != address(0), \"you are not merchant\");\n        return _merchantCodeToAddress[merchantCode];\n    }\n\n\n    function showMerchantCode(address merchantAddress) public view returns (address) {\n        require(_AddressToMerchantCodes[merchantAddress] != address(0), \"you are not merchant\");\n        return _AddressToMerchantCodes[merchantAddress];\n    }\n\n}",
  "sourcePath": "/Users/kim/projects/tickets/blockchain/contracts/fourPartyModel.sol",
  "compiler": {
    "name": "solc",
    "version": "0.8.20+commit.a1b79de6.Emscripten.clang"
  },
  "schemaVersion": "3.4.13",
  "updatedAt": "2023-11-20T02:12:18.553Z",
  "networkType": "ethereum",
  "devdoc": {
    "kind": "dev",
    "methods": {},
    "version": 1
  },
  "userdoc": {
    "kind": "user",
    "methods": {},
    "version": 1
  }
}